{
  "_format": "hh-sol-artifact-1",
  "contractName": "Microfinance",
  "sourceName": "contracts/Microfinance.sol",
  "abi": [
    {
      "inputs": [
        {
          "internalType": "address payable",
          "name": "_treasury",
          "type": "address"
        }
      ],
      "stateMutability": "nonpayable",
      "type": "constructor"
    },
    {
      "inputs": [],
      "name": "EnforcedPause",
      "type": "error"
    },
    {
      "inputs": [],
      "name": "ExpectedPause",
      "type": "error"
    },
    {
      "inputs": [
        {
          "internalType": "address",
          "name": "owner",
          "type": "address"
        }
      ],
      "name": "OwnableInvalidOwner",
      "type": "error"
    },
    {
      "inputs": [
        {
          "internalType": "address",
          "name": "account",
          "type": "address"
        }
      ],
      "name": "OwnableUnauthorizedAccount",
      "type": "error"
    },
    {
      "inputs": [],
      "name": "ReentrancyGuardReentrantCall",
      "type": "error"
    },
    {
      "anonymous": false,
      "inputs": [
        {
          "indexed": true,
          "internalType": "uint256",
          "name": "loanId",
          "type": "uint256"
        },
        {
          "indexed": true,
          "internalType": "address",
          "name": "borrower",
          "type": "address"
        },
        {
          "indexed": true,
          "internalType": "address",
          "name": "lender",
          "type": "address"
        },
        {
          "indexed": false,
          "internalType": "uint256",
          "name": "amount",
          "type": "uint256"
        },
        {
          "indexed": false,
          "internalType": "uint256",
          "name": "lenderFee",
          "type": "uint256"
        },
        {
          "indexed": false,
          "internalType": "uint256",
          "name": "borrowerFee",
          "type": "uint256"
        }
      ],
      "name": "LoanFunded",
      "type": "event"
    },
    {
      "anonymous": false,
      "inputs": [
        {
          "indexed": true,
          "internalType": "uint256",
          "name": "loanId",
          "type": "uint256"
        },
        {
          "indexed": true,
          "internalType": "address",
          "name": "borrower",
          "type": "address"
        }
      ],
      "name": "LoanRejected",
      "type": "event"
    },
    {
      "anonymous": false,
      "inputs": [
        {
          "indexed": true,
          "internalType": "uint256",
          "name": "loanId",
          "type": "uint256"
        },
        {
          "indexed": true,
          "internalType": "address",
          "name": "borrower",
          "type": "address"
        },
        {
          "indexed": true,
          "internalType": "address",
          "name": "lender",
          "type": "address"
        },
        {
          "indexed": false,
          "internalType": "uint256",
          "name": "amount",
          "type": "uint256"
        }
      ],
      "name": "LoanRepaid",
      "type": "event"
    },
    {
      "anonymous": false,
      "inputs": [
        {
          "indexed": true,
          "internalType": "uint256",
          "name": "loanId",
          "type": "uint256"
        },
        {
          "indexed": true,
          "internalType": "address",
          "name": "borrower",
          "type": "address"
        },
        {
          "indexed": false,
          "internalType": "uint256",
          "name": "amount",
          "type": "uint256"
        },
        {
          "indexed": false,
          "internalType": "uint256",
          "name": "duration",
          "type": "uint256"
        }
      ],
      "name": "LoanRequested",
      "type": "event"
    },
    {
      "anonymous": false,
      "inputs": [
        {
          "indexed": true,
          "internalType": "address",
          "name": "previousOwner",
          "type": "address"
        },
        {
          "indexed": true,
          "internalType": "address",
          "name": "newOwner",
          "type": "address"
        }
      ],
      "name": "OwnershipTransferred",
      "type": "event"
    },
    {
      "anonymous": false,
      "inputs": [
        {
          "indexed": false,
          "internalType": "address",
          "name": "account",
          "type": "address"
        }
      ],
      "name": "Paused",
      "type": "event"
    },
    {
      "anonymous": false,
      "inputs": [
        {
          "indexed": false,
          "internalType": "address",
          "name": "account",
          "type": "address"
        }
      ],
      "name": "Unpaused",
      "type": "event"
    },
    {
      "inputs": [
        {
          "internalType": "uint256",
          "name": "_loanId",
          "type": "uint256"
        }
      ],
      "name": "approveLoan",
      "outputs": [],
      "stateMutability": "nonpayable",
      "type": "function"
    },
    {
      "inputs": [],
      "name": "borrowerFeeBps",
      "outputs": [
        {
          "internalType": "uint256",
          "name": "",
          "type": "uint256"
        }
      ],
      "stateMutability": "view",
      "type": "function"
    },
    {
      "inputs": [
        {
          "internalType": "address",
          "name": "",
          "type": "address"
        }
      ],
      "name": "creditScores",
      "outputs": [
        {
          "internalType": "uint256",
          "name": "",
          "type": "uint256"
        }
      ],
      "stateMutability": "view",
      "type": "function"
    },
    {
      "inputs": [
        {
          "internalType": "uint256",
          "name": "_loanId",
          "type": "uint256"
        }
      ],
      "name": "fundLoan",
      "outputs": [],
      "stateMutability": "payable",
      "type": "function"
    },
    {
      "inputs": [
        {
          "internalType": "uint256",
          "name": "_loanId",
          "type": "uint256"
        }
      ],
      "name": "getLoan",
      "outputs": [
        {
          "internalType": "address",
          "name": "borrower",
          "type": "address"
        },
        {
          "internalType": "uint256",
          "name": "amount",
          "type": "uint256"
        },
        {
          "internalType": "uint256",
          "name": "duration",
          "type": "uint256"
        },
        {
          "internalType": "string",
          "name": "purpose",
          "type": "string"
        },
        {
          "internalType": "enum Microfinance.LoanStatus",
          "name": "status",
          "type": "uint8"
        },
        {
          "internalType": "uint256",
          "name": "dueDate",
          "type": "uint256"
        },
        {
          "internalType": "address",
          "name": "lender",
          "type": "address"
        }
      ],
      "stateMutability": "view",
      "type": "function"
    },
    {
      "inputs": [],
      "name": "getLoanCount",
      "outputs": [
        {
          "internalType": "uint256",
          "name": "",
          "type": "uint256"
        }
      ],
      "stateMutability": "view",
      "type": "function"
    },
    {
      "inputs": [
        {
          "internalType": "address",
          "name": "_user",
          "type": "address"
        }
      ],
      "name": "getUserCreditScore",
      "outputs": [
        {
          "internalType": "uint256",
          "name": "",
          "type": "uint256"
        }
      ],
      "stateMutability": "view",
      "type": "function"
    },
    {
      "inputs": [
        {
          "internalType": "address",
          "name": "_user",
          "type": "address"
        },
        {
          "internalType": "uint256",
          "name": "_index",
          "type": "uint256"
        }
      ],
      "name": "getUserLoanAtIndex",
      "outputs": [
        {
          "components": [
            {
              "internalType": "address",
              "name": "borrower",
              "type": "address"
            },
            {
              "internalType": "uint256",
              "name": "amount",
              "type": "uint256"
            },
            {
              "internalType": "uint256",
              "name": "duration",
              "type": "uint256"
            },
            {
              "internalType": "string",
              "name": "purpose",
              "type": "string"
            },
            {
              "internalType": "enum Microfinance.LoanStatus",
              "name": "status",
              "type": "uint8"
            },
            {
              "internalType": "uint256",
              "name": "dueDate",
              "type": "uint256"
            },
            {
              "internalType": "address",
              "name": "lender",
              "type": "address"
            }
          ],
          "internalType": "struct Microfinance.Loan",
          "name": "",
          "type": "tuple"
        }
      ],
      "stateMutability": "view",
      "type": "function"
    },
    {
      "inputs": [
        {
          "internalType": "address",
          "name": "_user",
          "type": "address"
        }
      ],
      "name": "getUserLoanCount",
      "outputs": [
        {
          "internalType": "uint256",
          "name": "",
          "type": "uint256"
        }
      ],
      "stateMutability": "view",
      "type": "function"
    },
    {
      "inputs": [],
      "name": "lenderFeeBps",
      "outputs": [
        {
          "internalType": "uint256",
          "name": "",
          "type": "uint256"
        }
      ],
      "stateMutability": "view",
      "type": "function"
    },
    {
      "inputs": [
        {
          "internalType": "uint256",
          "name": "",
          "type": "uint256"
        }
      ],
      "name": "loans",
      "outputs": [
        {
          "internalType": "address",
          "name": "borrower",
          "type": "address"
        },
        {
          "internalType": "uint256",
          "name": "amount",
          "type": "uint256"
        },
        {
          "internalType": "uint256",
          "name": "duration",
          "type": "uint256"
        },
        {
          "internalType": "string",
          "name": "purpose",
          "type": "string"
        },
        {
          "internalType": "enum Microfinance.LoanStatus",
          "name": "status",
          "type": "uint8"
        },
        {
          "internalType": "uint256",
          "name": "dueDate",
          "type": "uint256"
        },
        {
          "internalType": "address",
          "name": "lender",
          "type": "address"
        }
      ],
      "stateMutability": "view",
      "type": "function"
    },
    {
      "inputs": [],
      "name": "owner",
      "outputs": [
        {
          "internalType": "address",
          "name": "",
          "type": "address"
        }
      ],
      "stateMutability": "view",
      "type": "function"
    },
    {
      "inputs": [],
      "name": "pause",
      "outputs": [],
      "stateMutability": "nonpayable",
      "type": "function"
    },
    {
      "inputs": [],
      "name": "paused",
      "outputs": [
        {
          "internalType": "bool",
          "name": "",
          "type": "bool"
        }
      ],
      "stateMutability": "view",
      "type": "function"
    },
    {
      "inputs": [
        {
          "internalType": "uint256",
          "name": "_loanId",
          "type": "uint256"
        }
      ],
      "name": "rejectLoan",
      "outputs": [],
      "stateMutability": "nonpayable",
      "type": "function"
    },
    {
      "inputs": [],
      "name": "renounceOwnership",
      "outputs": [],
      "stateMutability": "nonpayable",
      "type": "function"
    },
    {
      "inputs": [
        {
          "internalType": "uint256",
          "name": "_loanId",
          "type": "uint256"
        }
      ],
      "name": "repayLoan",
      "outputs": [],
      "stateMutability": "payable",
      "type": "function"
    },
    {
      "inputs": [
        {
          "internalType": "uint256",
          "name": "_amount",
          "type": "uint256"
        },
        {
          "internalType": "uint256",
          "name": "_duration",
          "type": "uint256"
        },
        {
          "internalType": "string",
          "name": "_purpose",
          "type": "string"
        }
      ],
      "name": "requestLoan",
      "outputs": [
        {
          "internalType": "uint256",
          "name": "loanId",
          "type": "uint256"
        }
      ],
      "stateMutability": "nonpayable",
      "type": "function"
    },
    {
      "inputs": [
        {
          "internalType": "uint256",
          "name": "_lenderFeeBps",
          "type": "uint256"
        },
        {
          "internalType": "uint256",
          "name": "_borrowerFeeBps",
          "type": "uint256"
        }
      ],
      "name": "setFees",
      "outputs": [],
      "stateMutability": "nonpayable",
      "type": "function"
    },
    {
      "inputs": [
        {
          "internalType": "address payable",
          "name": "_treasury",
          "type": "address"
        }
      ],
      "name": "setTreasury",
      "outputs": [],
      "stateMutability": "nonpayable",
      "type": "function"
    },
    {
      "inputs": [
        {
          "internalType": "address",
          "name": "newOwner",
          "type": "address"
        }
      ],
      "name": "transferOwnership",
      "outputs": [],
      "stateMutability": "nonpayable",
      "type": "function"
    },
    {
      "inputs": [],
      "name": "treasury",
      "outputs": [
        {
          "internalType": "address payable",
          "name": "",
          "type": "address"
        }
      ],
      "stateMutability": "view",
      "type": "function"
    },
    {
      "inputs": [],
      "name": "unpause",
      "outputs": [],
      "stateMutability": "nonpayable",
      "type": "function"
    },
    {
      "inputs": [
        {
          "internalType": "address",
          "name": "",
          "type": "address"
        },
        {
          "internalType": "uint256",
          "name": "",
          "type": "uint256"
        }
      ],
      "name": "userLoans",
      "outputs": [
        {
          "internalType": "uint256",
          "name": "",
          "type": "uint256"
        }
      ],
      "stateMutability": "view",
      "type": "function"
    }
  ],
  "bytecode": "0x6080604052606460055560326006553480156200001b57600080fd5b5060405162001dbc38038062001dbc8339810160408190526200003e9162000145565b33806200006657604051631e4fbdf760e01b8152600060048201526024015b60405180910390fd5b6200007181620000f5565b506000805460ff60a01b19169055600180556001600160a01b038116620000cf5760405162461bcd60e51b81526020600482015260116024820152701d1c99585cdd5c9e481c995c5d5a5c9959607a1b60448201526064016200005d565b600780546001600160a01b0319166001600160a01b039290921691909117905562000177565b600080546001600160a01b038381166001600160a01b0319831681178455604051919092169283917f8be0079c531659141344cd1fd0a4f28419497f9722a3daafe3b4186f6b6457e09190a35050565b6000602082840312156200015857600080fd5b81516001600160a01b03811681146200017057600080fd5b9392505050565b611c3580620001876000396000f3fe60806040526004361061014b5760003560e01c806380bb7273116100b6578063ab7b1c891161006f578063ab7b1c89146103d1578063d3602dc6146103e4578063d8bad5bd14610404578063e1ec3c6814610424578063f0f4426014610444578063f2fde38b1461046457600080fd5b806380bb7273146103085780638456cb5914610335578063846b909a1461034a5780638da5cb5b1461035d578063aa3b68671461037b578063aadc1ac1146103b157600080fd5b8063504006ca11610108578063504006ca14610229578063521968121461025c5780635c975abb146102715780635d29cb981461029b57806361d027b3146102bb578063715018a6146102f357600080fd5b80630b78f9c01461015057806323352a69146101725780633f4ba83a1461019b57806347096973146101b057806348aa2f70146101dd5780634dd601b4146101f3575b600080fd5b34801561015c57600080fd5b5061017061016b366004611716565b610484565b005b34801561017e57600080fd5b5061018860065481565b6040519081526020015b60405180910390f35b3480156101a757600080fd5b506101706104eb565b3480156101bc57600080fd5b506101d06101cb36600461174d565b6104fd565b60405161019291906117f7565b3480156101e957600080fd5b5061018860055481565b3480156101ff57600080fd5b5061018861020e366004611871565b6001600160a01b031660009081526004602052604090205490565b34801561023557600080fd5b50610249610244366004611895565b610716565b60405161019297969594939291906118ae565b34801561026857600080fd5b50600254610188565b34801561027d57600080fd5b50600054600160a01b900460ff166040519015158152602001610192565b3480156102a757600080fd5b506101706102b6366004611895565b610850565b3480156102c757600080fd5b506007546102db906001600160a01b031681565b6040516001600160a01b039091168152602001610192565b3480156102ff57600080fd5b50610170610929565b34801561031457600080fd5b50610188610323366004611871565b60046020526000908152604090205481565b34801561034157600080fd5b5061017061093b565b610170610358366004611895565b61094b565b34801561036957600080fd5b506000546001600160a01b03166102db565b34801561038757600080fd5b50610188610396366004611871565b6001600160a01b031660009081526003602052604090205490565b3480156103bd57600080fd5b506101706103cc366004611895565b610d56565b6101706103df366004611895565b610e17565b3480156103f057600080fd5b506101886103ff36600461191c565b611173565b34801561041057600080fd5b5061018861041f36600461174d565b6113af565b34801561043057600080fd5b5061024961043f366004611895565b6113e0565b34801561045057600080fd5b5061017061045f366004611871565b6114d3565b34801561047057600080fd5b5061017061047f366004611871565b611547565b61048c611582565b6103e882111580156104a057506103e88111155b6104e05760405162461bcd60e51b815260206004820152600c60248201526b0cccaca40e8dede40d0d2ced60a31b60448201526064015b60405180910390fd5b600591909155600655565b6104f3611582565b6104fb6115af565b565b6040805160e081018252600080825260208083018290528284018290526060808401526080830182905260a0830182905260c083018290526001600160a01b038616825260039052919091205482106105845760405162461bcd60e51b81526020600482015260096024820152680c4c2c840d2dcc8caf60bb1b60448201526064016104d7565b6001600160a01b03831660009081526003602052604081208054849081106105ae576105ae6119e0565b90600052602060002001549050600281815481106105ce576105ce6119e0565b90600052602060002090600702016040518060e00160405290816000820160009054906101000a90046001600160a01b03166001600160a01b03166001600160a01b03168152602001600182015481526020016002820154815260200160038201805461063a906119f6565b80601f0160208091040260200160405190810160405280929190818152602001828054610666906119f6565b80156106b35780601f10610688576101008083540402835291602001916106b3565b820191906000526020600020905b81548152906001019060200180831161069657829003601f168201915b5050509183525050600482015460209091019060ff1660038111156106da576106da6117bf565b60038111156106eb576106eb6117bf565b8152600582015460208201526006909101546001600160a01b03166040909101529150505b92915050565b60008060006060600080600060028054905088106107465760405162461bcd60e51b81526004016104d790611a30565b60006002898154811061075b5761075b6119e0565b600091825260209091206007909102018054600182015460028301546004840154600585015460068601546003870180549798506001600160a01b039687169795969495909460ff909416939091169084906107b6906119f6565b80601f01602080910402602001604051908101604052809291908181526020018280546107e2906119f6565b801561082f5780601f106108045761010080835404028352916020019161082f565b820191906000526020600020905b81548152906001019060200180831161081257829003601f168201915b50505050509350975097509750975097509750975050919395979092949650565b610858611582565b610860611604565b60025481106108815760405162461bcd60e51b81526004016104d790611a30565b600060028281548110610896576108966119e0565b6000918252602082206007909102019150600482015460ff1660038111156108c0576108c06117bf565b146108dd5760405162461bcd60e51b81526004016104d790611a54565b60048101805460ff1916600317905580546040516001600160a01b039091169083907fe7ba502e07e0f90def7143baaace80ef86ce4d26899461424511082ed678499f90600090a35050565b610931611582565b6104fb600061162f565b610943611582565b6104fb61167f565b6109536116c2565b61095b611604565b600254811061097c5760405162461bcd60e51b81526004016104d790611a30565b600060028281548110610991576109916119e0565b6000918252602082206007909102019150600482015460ff1660038111156109bb576109bb6117bf565b146109d85760405162461bcd60e51b81526004016104d790611a54565b6000816001015411610a1d5760405162461bcd60e51b815260206004820152600e60248201526d1a5b9d985b1a5908185b5bdd5b9d60921b60448201526064016104d7565b60006127106005548360010154610a349190611a8f565b610a3e9190611aa6565b905060006127106006548460010154610a579190611a8f565b610a619190611aa6565b90506000828460010154610a759190611ac8565b9050803414610ab85760405162461bcd60e51b815260206004820152600f60248201526e696e636f72726563742076616c756560881b60448201526064016104d7565b6007546040516000916001600160a01b03169085908381818185875af1925050503d8060008114610b05576040519150601f19603f3d011682016040523d82523d6000602084013e610b0a565b606091505b5050905080610b545760405162461bcd60e51b81526020600482015260166024820152751b195b99195c88199959481e19995c8819985a5b195960521b60448201526064016104d7565b6000838660010154610b669190611adb565b86546040519192506000916001600160a01b039091169083908381818185875af1925050503d8060008114610bb7576040519150601f19603f3d011682016040523d82523d6000602084013e610bbc565b606091505b5050905080610c045760405162461bcd60e51b8152602060048201526014602482015273189bdc9c9bddd95c881e19995c8819985a5b195960621b60448201526064016104d7565b6007546040516000916001600160a01b03169087908381818185875af1925050503d8060008114610c51576040519150601f19603f3d011682016040523d82523d6000602084013e610c56565b606091505b5050905080610ca75760405162461bcd60e51b815260206004820152601860248201527f626f72726f776572206665652078666572206661696c6564000000000000000060448201526064016104d7565b60048801805460ff19166001179055600688018054336001600160a01b03199091161790556002880154610cde9062015180611a8f565b610ce89042611ac8565b60058901558754600189015460408051918252602082018a9052810188905233916001600160a01b0316908b907f8aa0da3f068a2cb6c8967ae3dcba3c1e23f4035d737fd9cb63fb331e851760519060600160405180910390a45050505050505050610d5360018055565b50565b610d5e611582565b610d66611604565b6002548110610d875760405162461bcd60e51b81526004016104d790611a30565b600060028281548110610d9c57610d9c6119e0565b6000918252602082206007909102019150600482015460ff166003811115610dc657610dc66117bf565b14610de35760405162461bcd60e51b81526004016104d790611a54565b60048101805460ff191660011790556002810154610e049062015180611a8f565b610e0e9042611ac8565b60059091015550565b610e1f6116c2565b610e27611604565b6002548110610e485760405162461bcd60e51b81526004016104d790611a30565b600060028281548110610e5d57610e5d6119e0565b6000918252602090912060079091020180549091506001600160a01b03163314610eb85760405162461bcd60e51b815260206004820152600c60248201526b3737ba103137b93937bbb2b960a11b60448201526064016104d7565b6001600482015460ff166003811115610ed357610ed36117bf565b14610f0f5760405162461bcd60e51b815260206004820152600c60248201526b1b9bdd08185c1c1c9bdd995960a21b60448201526064016104d7565b8060010154341015610f585760405162461bcd60e51b8152602060048201526012602482015271696e73756666696369656e7420726570617960701b60448201526064016104d7565b60068101546001600160a01b0316610f9e5760405162461bcd60e51b81526020600482015260096024820152683737903632b73232b960b91b60448201526064016104d7565b6004818101805460ff19166002179055336000908152602091909152604081208054600a9290610fcf908490611ac8565b9091555050600681015460018201546040516000926001600160a01b031691908381818185875af1925050503d8060008114611027576040519150601f19603f3d011682016040523d82523d6000602084013e61102c565b606091505b50509050806110725760405162461bcd60e51b81526020600482015260126024820152711b195b99195c881e19995c8819985a5b195960721b60448201526064016104d7565b6006820154825460018401546040519081526001600160a01b03928316929091169085907f710e531990ea39fba48230679094c845e457119cedc84798e6f0e1eb2422ac599060200160405180910390a460008260010154346110d59190611adb565b9050801561116757604051600090339083908381818185875af1925050503d806000811461111f576040519150601f19603f3d011682016040523d82523d6000602084013e611124565b606091505b50509050806111655760405162461bcd60e51b815260206004820152600d60248201526c1c99599d5b990819985a5b1959609a1b60448201526064016104d7565b505b505050610d5360018055565b600061117d611604565b600084116111b85760405162461bcd60e51b81526020600482015260086024820152670616d6f756e743d360c41b60448201526064016104d7565b600083116111f55760405162461bcd60e51b815260206004820152600a60248201526906475726174696f6e3d360b41b60448201526064016104d7565b60008251116112365760405162461bcd60e51b815260206004820152600d60248201526c707572706f736520656d70747960981b60448201526064016104d7565b50600280546040805160e081018252338152602081018790529081018590526060810184905290919060808101600081526020016112778662015180611a8f565b6112819042611ac8565b81526000602091820181905283546001808201865594825290829020835160079092020180546001600160a01b0319166001600160a01b03909216919091178155908201519281019290925560408101516002830155606081015190919060038201906112ee9082611b3f565b50608082015160048201805460ff19166001836003811115611312576113126117bf565b021790555060a0820151600582015560c090910151600690910180546001600160a01b0319166001600160a01b03909216919091179055336000818152600360209081526040808320805460018101825590845292829020909201849055815187815290810186905283917f68595dbe887ae7f496f2c88735019a8918919a1decfdee6bdb460480ab87decb910160405180910390a39392505050565b600360205281600052604060002081815481106113cb57600080fd5b90600052602060002001600091509150505481565b600281815481106113f057600080fd5b600091825260209091206007909102018054600182015460028301546003840180546001600160a01b0390941695509193909290919061142f906119f6565b80601f016020809104026020016040519081016040528092919081815260200182805461145b906119f6565b80156114a85780601f1061147d576101008083540402835291602001916114a8565b820191906000526020600020905b81548152906001019060200180831161148b57829003601f168201915b5050505060048301546005840154600690940154929360ff909116929091506001600160a01b031687565b6114db611582565b6001600160a01b0381166115255760405162461bcd60e51b81526020600482015260116024820152701d1c99585cdd5c9e481c995c5d5a5c9959607a1b60448201526064016104d7565b600780546001600160a01b0319166001600160a01b0392909216919091179055565b61154f611582565b6001600160a01b03811661157957604051631e4fbdf760e01b8152600060048201526024016104d7565b610d538161162f565b6000546001600160a01b031633146104fb5760405163118cdaa760e01b81523360048201526024016104d7565b6115b76116ec565b6000805460ff60a01b191690557f5db9ee0a495bf2e6ff9c91a7834c1ba4fdd244a5e8aa4e537bd38aeae4b073aa335b6040516001600160a01b03909116815260200160405180910390a1565b600054600160a01b900460ff16156104fb5760405163d93c066560e01b815260040160405180910390fd5b600080546001600160a01b038381166001600160a01b0319831681178455604051919092169283917f8be0079c531659141344cd1fd0a4f28419497f9722a3daafe3b4186f6b6457e09190a35050565b611687611604565b6000805460ff60a01b1916600160a01b1790557f62e78cea01bee320cd4e420270b5ea74000d11b0c9f74754ebdbfc544b05a2586115e73390565b6002600154036116e557604051633ee5aeb560e01b815260040160405180910390fd5b6002600155565b600054600160a01b900460ff166104fb57604051638dfc202b60e01b815260040160405180910390fd5b6000806040838503121561172957600080fd5b50508035926020909101359150565b6001600160a01b0381168114610d5357600080fd5b6000806040838503121561176057600080fd5b823561176b81611738565b946020939093013593505050565b6000815180845260005b8181101561179f57602081850181015186830182015201611783565b506000602082860101526020601f19601f83011685010191505092915050565b634e487b7160e01b600052602160045260246000fd5b600481106117f357634e487b7160e01b600052602160045260246000fd5b9052565b60208152600060018060a01b038084511660208401526020840151604084015260408401516060840152606084015160e0608085015261183b610100850182611779565b9050608085015161184f60a08601826117d5565b5060a085015160c08501528160c08601511660e0850152809250505092915050565b60006020828403121561188357600080fd5b813561188e81611738565b9392505050565b6000602082840312156118a757600080fd5b5035919050565b600060018060a01b03808a16835288602084015287604084015260e060608401526118dc60e0840188611779565b91506118eb60808401876117d5565b8460a084015280841660c08401525098975050505050505050565b634e487b7160e01b600052604160045260246000fd5b60008060006060848603121561193157600080fd5b8335925060208401359150604084013567ffffffffffffffff8082111561195757600080fd5b818601915086601f83011261196b57600080fd5b81358181111561197d5761197d611906565b604051601f8201601f19908116603f011681019083821181831017156119a5576119a5611906565b816040528281528960208487010111156119be57600080fd5b8260208601602083013760006020848301015280955050505050509250925092565b634e487b7160e01b600052603260045260246000fd5b600181811c90821680611a0a57607f821691505b602082108103611a2a57634e487b7160e01b600052602260045260246000fd5b50919050565b6020808252600a90820152691a5b9d985b1a59081a5960b21b604082015260600190565b6020808252600b908201526a6e6f742070656e64696e6760a81b604082015260600190565b634e487b7160e01b600052601160045260246000fd5b808202811582820484141761071057610710611a79565b600082611ac357634e487b7160e01b600052601260045260246000fd5b500490565b8082018082111561071057610710611a79565b8181038181111561071057610710611a79565b601f821115611b3a576000816000526020600020601f850160051c81016020861015611b175750805b601f850160051c820191505b81811015611b3657828155600101611b23565b5050505b505050565b815167ffffffffffffffff811115611b5957611b59611906565b611b6d81611b6784546119f6565b84611aee565b602080601f831160018114611ba25760008415611b8a5750858301515b600019600386901b1c1916600185901b178555611b36565b600085815260208120601f198616915b82811015611bd157888601518255948401946001909101908401611bb2565b5085821015611bef5787850151600019600388901b60f8161c191681555b5050505050600190811b0190555056fea26469706673582212200979f472a80438bc3c8159abfba02ddac581e46f5d696fdadd69d035cbff8ae464736f6c63430008160033",
  "linkReferences": {},
  "deployedLinkReferences": {}
}